{
  "abi": [
    {
      "type": "constructor",
      "inputs": [
        {
          "name": "router",
          "type": "address",
          "internalType": "address"
        }
      ],
      "stateMutability": "nonpayable"
    },
    {
      "type": "function",
      "name": "approve",
      "inputs": [
        {
          "name": "token",
          "type": "address",
          "internalType": "address"
        },
        {
          "name": "spender",
          "type": "address",
          "internalType": "address"
        },
        {
          "name": "value",
          "type": "uint256",
          "internalType": "uint256"
        }
      ],
      "outputs": [
        {
          "name": "",
          "type": "bool",
          "internalType": "bool"
        }
      ],
      "stateMutability": "nonpayable"
    },
    {
      "type": "function",
      "name": "bundleTrade",
      "inputs": [
        {
          "name": "orders",
          "type": "tuple[]",
          "internalType": "struct ExactInputSingleParams[]",
          "components": [
            {
              "name": "tokenIn",
              "type": "address",
              "internalType": "address"
            },
            {
              "name": "tokenOut",
              "type": "address",
              "internalType": "address"
            },
            {
              "name": "fee",
              "type": "uint24",
              "internalType": "uint24"
            },
            {
              "name": "recipient",
              "type": "address",
              "internalType": "address"
            },
            {
              "name": "deadline",
              "type": "uint256",
              "internalType": "uint256"
            },
            {
              "name": "amountIn",
              "type": "uint256",
              "internalType": "uint256"
            },
            {
              "name": "amountOutMinimum",
              "type": "uint256",
              "internalType": "uint256"
            },
            {
              "name": "sqrtPriceLimitX96",
              "type": "uint160",
              "internalType": "uint160"
            }
          ]
        }
      ],
      "outputs": [],
      "stateMutability": "nonpayable"
    },
    {
      "type": "function",
      "name": "inverseTrade",
      "inputs": [
        {
          "name": "order",
          "type": "tuple",
          "internalType": "struct ExactInputSingleParams",
          "components": [
            {
              "name": "tokenIn",
              "type": "address",
              "internalType": "address"
            },
            {
              "name": "tokenOut",
              "type": "address",
              "internalType": "address"
            },
            {
              "name": "fee",
              "type": "uint24",
              "internalType": "uint24"
            },
            {
              "name": "recipient",
              "type": "address",
              "internalType": "address"
            },
            {
              "name": "deadline",
              "type": "uint256",
              "internalType": "uint256"
            },
            {
              "name": "amountIn",
              "type": "uint256",
              "internalType": "uint256"
            },
            {
              "name": "amountOutMinimum",
              "type": "uint256",
              "internalType": "uint256"
            },
            {
              "name": "sqrtPriceLimitX96",
              "type": "uint160",
              "internalType": "uint160"
            }
          ]
        }
      ],
      "outputs": [],
      "stateMutability": "nonpayable"
    },
    {
      "type": "function",
      "name": "owner",
      "inputs": [],
      "outputs": [
        {
          "name": "",
          "type": "address",
          "internalType": "address"
        }
      ],
      "stateMutability": "view"
    },
    {
      "type": "function",
      "name": "renounceOwnership",
      "inputs": [],
      "outputs": [],
      "stateMutability": "nonpayable"
    },
    {
      "type": "function",
      "name": "transferOwnership",
      "inputs": [
        {
          "name": "newOwner",
          "type": "address",
          "internalType": "address"
        }
      ],
      "outputs": [],
      "stateMutability": "nonpayable"
    },
    {
      "type": "function",
      "name": "withdrawERC20",
      "inputs": [
        {
          "name": "token",
          "type": "address",
          "internalType": "address"
        },
        {
          "name": "recipient",
          "type": "address",
          "internalType": "address"
        }
      ],
      "outputs": [],
      "stateMutability": "nonpayable"
    },
    {
      "type": "function",
      "name": "withdrawETH",
      "inputs": [
        {
          "name": "recipient",
          "type": "address",
          "internalType": "address"
        }
      ],
      "outputs": [],
      "stateMutability": "nonpayable"
    },
    {
      "type": "event",
      "name": "OwnershipTransferred",
      "inputs": [
        {
          "name": "previousOwner",
          "type": "address",
          "indexed": true,
          "internalType": "address"
        },
        {
          "name": "newOwner",
          "type": "address",
          "indexed": true,
          "internalType": "address"
        }
      ],
      "anonymous": false
    },
    {
      "type": "error",
      "name": "OwnableInvalidOwner",
      "inputs": [
        {
          "name": "owner",
          "type": "address",
          "internalType": "address"
        }
      ]
    },
    {
      "type": "error",
      "name": "OwnableUnauthorizedAccount",
      "inputs": [
        {
          "name": "account",
          "type": "address",
          "internalType": "address"
        }
      ]
    }
  ],
  "bytecode": {
    "object": "0x608060405234801561001057600080fd5b50604051610b90380380610b9083398101604081905261002f916100d4565b338061005557604051631e4fbdf760e01b81526000600482015260240160405180910390fd5b61005e81610084565b50600180546001600160a01b0319166001600160a01b0392909216919091179055610104565b600080546001600160a01b038381166001600160a01b0319831681178455604051919092169283917f8be0079c531659141344cd1fd0a4f28419497f9722a3daafe3b4186f6b6457e09190a35050565b6000602082840312156100e657600080fd5b81516001600160a01b03811681146100fd57600080fd5b9392505050565b610a7d806101136000396000f3fe608060405234801561001057600080fd5b50600436106100885760003560e01c80639ec473921161005b5780639ec47392146100dd578063e1cb981d146100f0578063e1f21c6714610103578063f2fde38b1461012657600080fd5b8063690d83201461008d578063715018a6146100a25780638da5cb5b146100aa5780639456fbcc146100ca575b600080fd5b6100a061009b366004610698565b610139565b005b6100a061017a565b6000546040516001600160a01b0390911681526020015b60405180910390f35b6100a06100d83660046106bc565b61018e565b6100a06100eb366004610807565b61027f565b6100a06100fe3660046108bb565b6103a4565b6101166101113660046108d8565b610533565b60405190151581526020016100c1565b6100a0610134366004610698565b6105b8565b6101416105f6565b6040516001600160a01b038216904780156108fc02916000818181858888f19350505050158015610176573d6000803e3d6000fd5b5050565b6101826105f6565b61018c6000610623565b565b6101966105f6565b6040516370a0823160e01b815230600482015282906001600160a01b0382169063a9059cbb90849083906370a0823190602401602060405180830381865afa1580156101e6573d6000803e3d6000fd5b505050506040513d601f19601f8201168201806040525081019061020a9190610919565b6040516001600160e01b031960e085901b1681526001600160a01b03909216600483015260248201526044016020604051808303816000875af1158015610255573d6000803e3d6000fd5b505050506040513d601f19601f820116820180604052508101906102799190610932565b50505050565b805160ff10156102ef5760405162461bcd60e51b815260206004820152603060248201527f546865206e756d626572206f66206f726465727320657863656564732074686560448201526f081b585e1a5b5d5b48185b1b1bddd95960821b60648201526084015b60405180910390fd5b60005b81518160ff1610156101765760015482516001600160a01b039091169063414bf38990849060ff851690811061032a5761032a610954565b60200260200101516040518263ffffffff1660e01b815260040161034e919061096a565b6020604051808303816000875af115801561036d573d6000803e3d6000fd5b505050506040513d601f19601f820116820180604052508101906103919190610919565b508061039c816109e9565b9150506102f2565b60015460405163414bf38960e01b81526000916001600160a01b03169063414bf389906103d590859060040161096a565b6020604051808303816000875af11580156103f4573d6000803e3d6000fd5b505050506040513d601f19601f820116820180604052508101906104189190610919565b9050600160009054906101000a90046001600160a01b03166001600160a01b031663414bf38960405180610100016040528085602001516001600160a01b0316815260200185600001516001600160a01b03168152602001856040015162ffffff16815260200185606001516001600160a01b03168152602001856080015181526020018481526020016103e88660a001516104b49190610a08565b6104c0906103b6610a2a565b815260006020909101526040516001600160e01b031960e084901b1681526104eb919060040161096a565b6020604051808303816000875af115801561050a573d6000803e3d6000fd5b505050506040513d601f19601f8201168201806040525081019061052e9190610919565b505050565b600061053d6105f6565b60405163095ea7b360e01b81526001600160a01b0384811660048301526024820184905285169063095ea7b3906044016020604051808303816000875af115801561058c573d6000803e3d6000fd5b505050506040513d601f19601f820116820180604052508101906105b09190610932565b949350505050565b6105c06105f6565b6001600160a01b0381166105ea57604051631e4fbdf760e01b8152600060048201526024016102e6565b6105f381610623565b50565b6000546001600160a01b0316331461018c5760405163118cdaa760e01b81523360048201526024016102e6565b600080546001600160a01b038381166001600160a01b0319831681178455604051919092169283917f8be0079c531659141344cd1fd0a4f28419497f9722a3daafe3b4186f6b6457e09190a35050565b6001600160a01b03811681146105f357600080fd5b803561069381610673565b919050565b6000602082840312156106aa57600080fd5b81356106b581610673565b9392505050565b600080604083850312156106cf57600080fd5b82356106da81610673565b915060208301356106ea81610673565b809150509250929050565b634e487b7160e01b600052604160045260246000fd5b604051601f8201601f1916810167ffffffffffffffff81118282101715610734576107346106f5565b604052919050565b803562ffffff8116811461069357600080fd5b600061010080838503121561076357600080fd5b6040519081019067ffffffffffffffff82118183101715610786576107866106f5565b816040528092508335915061079a82610673565b8181526107a960208501610688565b60208201526107ba6040850161073c565b60408201526107cb60608501610688565b60608201526080840135608082015260a084013560a082015260c084013560c08201526107fa60e08501610688565b60e0820152505092915050565b6000602080838503121561081a57600080fd5b823567ffffffffffffffff8082111561083257600080fd5b818501915085601f83011261084657600080fd5b813581811115610858576108586106f5565b610866848260051b0161070b565b818152848101925060089190911b83018401908782111561088657600080fd5b928401925b818410156108b05761089d888561074f565b835284830192506101008401935061088b565b979650505050505050565b600061010082840312156108ce57600080fd5b6106b5838361074f565b6000806000606084860312156108ed57600080fd5b83356108f881610673565b9250602084013561090881610673565b929592945050506040919091013590565b60006020828403121561092b57600080fd5b5051919050565b60006020828403121561094457600080fd5b815180151581146106b557600080fd5b634e487b7160e01b600052603260045260246000fd5b81516001600160a01b03908116825260208084015182169083015260408084015162ffffff16908301526060808401518216908301526080808401519083015260a0838101519083015260c0808401519083015260e09283015116918101919091526101000190565b634e487b7160e01b600052601160045260246000fd5b600060ff821660ff81036109ff576109ff6109d3565b60010192915050565b600082610a2557634e487b7160e01b600052601260045260246000fd5b500490565b8082028115828204841417610a4157610a416109d3565b9291505056fea2646970667358221220d843e3bd7eda2671b8a9fb961d0d69c1d782abb2909040ecdff81e6298fe88ab64736f6c63430008140033",
    "linkReferences": {}
  },
  "methodIdentifiers": {
    "approve(address,address,uint256)": "e1f21c67",
    "bundleTrade((address,address,uint24,address,uint256,uint256,uint256,uint160)[])": "9ec47392",
    "inverseTrade((address,address,uint24,address,uint256,uint256,uint256,uint160))": "e1cb981d",
    "owner()": "8da5cb5b",
    "renounceOwnership()": "715018a6",
    "transferOwnership(address)": "f2fde38b",
    "withdrawERC20(address,address)": "9456fbcc",
    "withdrawETH(address)": "690d8320"
  },
  "storageLayout": {
    "storage": [
      {
        "astId": 35117,
        "contract": "src/GhostTrader.sol:GhostTrader",
        "label": "_owner",
        "offset": 0,
        "slot": "0",
        "type": "t_address"
      },
      {
        "astId": 35571,
        "contract": "src/GhostTrader.sol:GhostTrader",
        "label": "swapRouter",
        "offset": 0,
        "slot": "1",
        "type": "t_contract(ISwapRouter)35767"
      }
    ],
    "types": {
      "t_address": {
        "encoding": "inplace",
        "label": "address",
        "numberOfBytes": "20"
      },
      "t_contract(ISwapRouter)35767": {
        "encoding": "inplace",
        "label": "contract ISwapRouter",
        "numberOfBytes": "20"
      }
    }
  },
  "id": 17
}