{
  "abi": [
    {
      "type": "constructor",
      "inputs": [
        {
          "name": "_router",
          "type": "address",
          "internalType": "address"
        },
        {
          "name": "_owner",
          "type": "address",
          "internalType": "address"
        },
        {
          "name": "_admins",
          "type": "address[]",
          "internalType": "address[]"
        }
      ],
      "stateMutability": "nonpayable"
    },
    {
      "type": "function",
      "name": "addAdmin",
      "inputs": [
        {
          "name": "admin",
          "type": "address",
          "internalType": "address"
        }
      ],
      "outputs": [],
      "stateMutability": "nonpayable"
    },
    {
      "type": "function",
      "name": "approve",
      "inputs": [
        {
          "name": "token",
          "type": "address",
          "internalType": "address"
        },
        {
          "name": "spender",
          "type": "address",
          "internalType": "address"
        },
        {
          "name": "value",
          "type": "uint256",
          "internalType": "uint256"
        }
      ],
      "outputs": [
        {
          "name": "",
          "type": "bool",
          "internalType": "bool"
        }
      ],
      "stateMutability": "nonpayable"
    },
    {
      "type": "function",
      "name": "bundleTrade",
      "inputs": [
        {
          "name": "orders",
          "type": "tuple[]",
          "internalType": "struct ExactInputSingleParams[]",
          "components": [
            {
              "name": "tokenIn",
              "type": "address",
              "internalType": "address"
            },
            {
              "name": "tokenOut",
              "type": "address",
              "internalType": "address"
            },
            {
              "name": "fee",
              "type": "uint24",
              "internalType": "uint24"
            },
            {
              "name": "recipient",
              "type": "address",
              "internalType": "address"
            },
            {
              "name": "deadline",
              "type": "uint256",
              "internalType": "uint256"
            },
            {
              "name": "amountIn",
              "type": "uint256",
              "internalType": "uint256"
            },
            {
              "name": "amountOutMinimum",
              "type": "uint256",
              "internalType": "uint256"
            },
            {
              "name": "sqrtPriceLimitX96",
              "type": "uint160",
              "internalType": "uint160"
            }
          ]
        }
      ],
      "outputs": [],
      "stateMutability": "nonpayable"
    },
    {
      "type": "function",
      "name": "inverseTrade",
      "inputs": [
        {
          "name": "order",
          "type": "tuple",
          "internalType": "struct ExactInputSingleParams",
          "components": [
            {
              "name": "tokenIn",
              "type": "address",
              "internalType": "address"
            },
            {
              "name": "tokenOut",
              "type": "address",
              "internalType": "address"
            },
            {
              "name": "fee",
              "type": "uint24",
              "internalType": "uint24"
            },
            {
              "name": "recipient",
              "type": "address",
              "internalType": "address"
            },
            {
              "name": "deadline",
              "type": "uint256",
              "internalType": "uint256"
            },
            {
              "name": "amountIn",
              "type": "uint256",
              "internalType": "uint256"
            },
            {
              "name": "amountOutMinimum",
              "type": "uint256",
              "internalType": "uint256"
            },
            {
              "name": "sqrtPriceLimitX96",
              "type": "uint160",
              "internalType": "uint160"
            }
          ]
        }
      ],
      "outputs": [],
      "stateMutability": "nonpayable"
    },
    {
      "type": "function",
      "name": "owner",
      "inputs": [],
      "outputs": [
        {
          "name": "",
          "type": "address",
          "internalType": "address"
        }
      ],
      "stateMutability": "view"
    },
    {
      "type": "function",
      "name": "removeAdmin",
      "inputs": [
        {
          "name": "admin",
          "type": "address",
          "internalType": "address"
        }
      ],
      "outputs": [],
      "stateMutability": "nonpayable"
    },
    {
      "type": "function",
      "name": "renounceOwnership",
      "inputs": [],
      "outputs": [],
      "stateMutability": "nonpayable"
    },
    {
      "type": "function",
      "name": "transferOwnership",
      "inputs": [
        {
          "name": "newOwner",
          "type": "address",
          "internalType": "address"
        }
      ],
      "outputs": [],
      "stateMutability": "nonpayable"
    },
    {
      "type": "function",
      "name": "withdrawERC20",
      "inputs": [
        {
          "name": "token",
          "type": "address",
          "internalType": "address"
        },
        {
          "name": "recipient",
          "type": "address",
          "internalType": "address"
        }
      ],
      "outputs": [],
      "stateMutability": "nonpayable"
    },
    {
      "type": "function",
      "name": "withdrawETH",
      "inputs": [
        {
          "name": "recipient",
          "type": "address",
          "internalType": "address"
        }
      ],
      "outputs": [],
      "stateMutability": "nonpayable"
    },
    {
      "type": "event",
      "name": "OwnershipTransferred",
      "inputs": [
        {
          "name": "previousOwner",
          "type": "address",
          "indexed": true,
          "internalType": "address"
        },
        {
          "name": "newOwner",
          "type": "address",
          "indexed": true,
          "internalType": "address"
        }
      ],
      "anonymous": false
    },
    {
      "type": "error",
      "name": "OwnableInvalidOwner",
      "inputs": [
        {
          "name": "owner",
          "type": "address",
          "internalType": "address"
        }
      ]
    },
    {
      "type": "error",
      "name": "OwnableUnauthorizedAccount",
      "inputs": [
        {
          "name": "account",
          "type": "address",
          "internalType": "address"
        }
      ]
    }
  ],
  "bytecode": {
    "object": "0x60806040523480156200001157600080fd5b5060405162000e9e38038062000e9e83398101604081905262000034916200018d565b816001600160a01b0381166200006457604051631e4fbdf760e01b81526000600482015260240160405180910390fd5b6200006f816200010a565b50600180546001600160a01b0319166001600160a01b03851617905560005b81518160ff1610156200010057600160026000848460ff1681518110620000b957620000b962000287565b6020908102919091018101516001600160a01b03168252810191909152604001600020805460ff191691151591909117905580620000f7816200029d565b9150506200008e565b50505050620002cb565b600080546001600160a01b038381166001600160a01b0319831681178455604051919092169283917f8be0079c531659141344cd1fd0a4f28419497f9722a3daafe3b4186f6b6457e09190a35050565b80516001600160a01b03811681146200017257600080fd5b919050565b634e487b7160e01b600052604160045260246000fd5b600080600060608486031215620001a357600080fd5b620001ae846200015a565b92506020620001bf8186016200015a565b60408601519093506001600160401b0380821115620001dd57600080fd5b818701915087601f830112620001f257600080fd5b81518181111562000207576200020762000177565b8060051b604051601f19603f830116810181811085821117156200022f576200022f62000177565b60405291825284820192508381018501918a8311156200024e57600080fd5b938501935b82851015620002775762000267856200015a565b8452938501939285019262000253565b8096505050505050509250925092565b634e487b7160e01b600052603260045260246000fd5b600060ff821660ff8103620002c257634e487b7160e01b600052601160045260246000fd5b60010192915050565b610bc380620002db6000396000f3fe608060405234801561001057600080fd5b506004361061009e5760003560e01c80639456fbcc116100665780639456fbcc146101065780639ec4739214610119578063e1cb981d1461012c578063e1f21c671461013f578063f2fde38b1461016257600080fd5b80631785f53c146100a3578063690d8320146100b857806370480275146100cb578063715018a6146100de5780638da5cb5b146100e6575b600080fd5b6100b66100b13660046107de565b610175565b005b6100b66100c63660046107de565b610232565b6100b66100d93660046107de565b610273565b6100b66102a8565b6000546040516001600160a01b0390911681526020015b60405180910390f35b6100b6610114366004610802565b6102bc565b6100b661012736600461094d565b6103ad565b6100b661013a366004610a01565b6104df565b61015261014d366004610a1e565b61067c565b60405190151581526020016100fd565b6100b66101703660046107de565b610701565b6001600160a01b038181166000908152600260205260408120805460ff1916905554165b6001600160a01b0316336001600160a01b031614806101cc57503360009081526002602052604090205460ff1615156001145b61022f5760405162461bcd60e51b815260206004820152602960248201527f4f6e6c7920746865206f776e6572206f722061646d696e2063616e20657865636044820152683aba32903a3434b99760b91b60648201526084015b60405180910390fd5b50565b61023a61073c565b6040516001600160a01b038216904780156108fc02916000818181858888f1935050505015801561026f573d6000803e3d6000fd5b5050565b6001600160a01b0381166000908152600260205260409020805460ff191660011790556101996000546001600160a01b031690565b6102b061073c565b6102ba6000610769565b565b6102c461073c565b6040516370a0823160e01b815230600482015282906001600160a01b0382169063a9059cbb90849083906370a0823190602401602060405180830381865afa158015610314573d6000803e3d6000fd5b505050506040513d601f19601f820116820180604052508101906103389190610a5f565b6040516001600160e01b031960e085901b1681526001600160a01b03909216600483015260248201526044016020604051808303816000875af1158015610383573d6000803e3d6000fd5b505050506040513d601f19601f820116820180604052508101906103a79190610a78565b50505050565b805160ff10156104185760405162461bcd60e51b815260206004820152603060248201527f546865206e756d626572206f66206f726465727320657863656564732074686560448201526f081b585e1a5b5d5b48185b1b1bddd95960821b6064820152608401610226565b60005b81518160ff1610156104cd5760015482516001600160a01b039091169063414bf38990849060ff851690811061045357610453610a9a565b60200260200101516040518263ffffffff1660e01b81526004016104779190610ab0565b6020604051808303816000875af1158015610496573d6000803e3d6000fd5b505050506040513d601f19601f820116820180604052508101906104ba9190610a5f565b50806104c581610b2f565b91505061041b565b506000546001600160a01b0316610199565b60015460405163414bf38960e01b81526000916001600160a01b03169063414bf38990610510908590600401610ab0565b6020604051808303816000875af115801561052f573d6000803e3d6000fd5b505050506040513d601f19601f820116820180604052508101906105539190610a5f565b9050600160009054906101000a90046001600160a01b03166001600160a01b031663414bf38960405180610100016040528085602001516001600160a01b0316815260200185600001516001600160a01b03168152602001856040015162ffffff16815260200185606001516001600160a01b03168152602001856080015181526020018481526020016103e88660a001516105ef9190610b4e565b6105fb906103b6610b70565b815260006020909101526040516001600160e01b031960e084901b1681526106269190600401610ab0565b6020604051808303816000875af1158015610645573d6000803e3d6000fd5b505050506040513d601f19601f820116820180604052508101906106699190610a5f565b50506000546001600160a01b0316610199565b600061068661073c565b60405163095ea7b360e01b81526001600160a01b0384811660048301526024820184905285169063095ea7b3906044016020604051808303816000875af11580156106d5573d6000803e3d6000fd5b505050506040513d601f19601f820116820180604052508101906106f99190610a78565b949350505050565b61070961073c565b6001600160a01b03811661073357604051631e4fbdf760e01b815260006004820152602401610226565b61022f81610769565b6000546001600160a01b031633146102ba5760405163118cdaa760e01b8152336004820152602401610226565b600080546001600160a01b038381166001600160a01b0319831681178455604051919092169283917f8be0079c531659141344cd1fd0a4f28419497f9722a3daafe3b4186f6b6457e09190a35050565b6001600160a01b038116811461022f57600080fd5b80356107d9816107b9565b919050565b6000602082840312156107f057600080fd5b81356107fb816107b9565b9392505050565b6000806040838503121561081557600080fd5b8235610820816107b9565b91506020830135610830816107b9565b809150509250929050565b634e487b7160e01b600052604160045260246000fd5b604051601f8201601f1916810167ffffffffffffffff8111828210171561087a5761087a61083b565b604052919050565b803562ffffff811681146107d957600080fd5b60006101008083850312156108a957600080fd5b6040519081019067ffffffffffffffff821181831017156108cc576108cc61083b565b81604052809250833591506108e0826107b9565b8181526108ef602085016107ce565b602082015261090060408501610882565b6040820152610911606085016107ce565b60608201526080840135608082015260a084013560a082015260c084013560c082015261094060e085016107ce565b60e0820152505092915050565b6000602080838503121561096057600080fd5b823567ffffffffffffffff8082111561097857600080fd5b818501915085601f83011261098c57600080fd5b81358181111561099e5761099e61083b565b6109ac848260051b01610851565b818152848101925060089190911b8301840190878211156109cc57600080fd5b928401925b818410156109f6576109e38885610895565b83528483019250610100840193506109d1565b979650505050505050565b60006101008284031215610a1457600080fd5b6107fb8383610895565b600080600060608486031215610a3357600080fd5b8335610a3e816107b9565b92506020840135610a4e816107b9565b929592945050506040919091013590565b600060208284031215610a7157600080fd5b5051919050565b600060208284031215610a8a57600080fd5b815180151581146107fb57600080fd5b634e487b7160e01b600052603260045260246000fd5b81516001600160a01b03908116825260208084015182169083015260408084015162ffffff16908301526060808401518216908301526080808401519083015260a0838101519083015260c0808401519083015260e09283015116918101919091526101000190565b634e487b7160e01b600052601160045260246000fd5b600060ff821660ff8103610b4557610b45610b19565b60010192915050565b600082610b6b57634e487b7160e01b600052601260045260246000fd5b500490565b8082028115828204841417610b8757610b87610b19565b9291505056fea26469706673582212202005497b987c49ddd042d635d111a821101eb5cf0595f658f208c6794e95d71064736f6c63430008140033",
    "linkReferences": {}
  },
  "methodIdentifiers": {
    "addAdmin(address)": "70480275",
    "approve(address,address,uint256)": "e1f21c67",
    "bundleTrade((address,address,uint24,address,uint256,uint256,uint256,uint160)[])": "9ec47392",
    "inverseTrade((address,address,uint24,address,uint256,uint256,uint256,uint160))": "e1cb981d",
    "owner()": "8da5cb5b",
    "removeAdmin(address)": "1785f53c",
    "renounceOwnership()": "715018a6",
    "transferOwnership(address)": "f2fde38b",
    "withdrawERC20(address,address)": "9456fbcc",
    "withdrawETH(address)": "690d8320"
  },
  "storageLayout": {
    "storage": [
      {
        "astId": 35117,
        "contract": "src/GhostTrader.sol:GhostTrader",
        "label": "_owner",
        "offset": 0,
        "slot": "0",
        "type": "t_address"
      },
      {
        "astId": 35666,
        "contract": "src/GhostTrader.sol:GhostTrader",
        "label": "swapRouter",
        "offset": 0,
        "slot": "1",
        "type": "t_contract(ISwapRouter)35943"
      },
      {
        "astId": 35670,
        "contract": "src/GhostTrader.sol:GhostTrader",
        "label": "admins",
        "offset": 0,
        "slot": "2",
        "type": "t_mapping(t_address,t_bool)"
      }
    ],
    "types": {
      "t_address": {
        "encoding": "inplace",
        "label": "address",
        "numberOfBytes": "20"
      },
      "t_bool": {
        "encoding": "inplace",
        "label": "bool",
        "numberOfBytes": "1"
      },
      "t_contract(ISwapRouter)35943": {
        "encoding": "inplace",
        "label": "contract ISwapRouter",
        "numberOfBytes": "20"
      },
      "t_mapping(t_address,t_bool)": {
        "encoding": "mapping",
        "key": "t_address",
        "label": "mapping(address => bool)",
        "numberOfBytes": "32",
        "value": "t_bool"
      }
    }
  },
  "id": 17
}