{
  "abi": [
    {
      "type": "constructor",
      "inputs": [
        {
          "name": "_router",
          "type": "address",
          "internalType": "address"
        },
        {
          "name": "_owner",
          "type": "address",
          "internalType": "address"
        },
        {
          "name": "_admins",
          "type": "address[]",
          "internalType": "address[]"
        }
      ],
      "stateMutability": "nonpayable"
    },
    {
      "type": "fallback",
      "stateMutability": "payable"
    },
    {
      "type": "receive",
      "stateMutability": "payable"
    },
    {
      "type": "function",
      "name": "addAdmin",
      "inputs": [
        {
          "name": "admin",
          "type": "address",
          "internalType": "address"
        }
      ],
      "outputs": [],
      "stateMutability": "nonpayable"
    },
    {
      "type": "function",
      "name": "approve",
      "inputs": [
        {
          "name": "token",
          "type": "address",
          "internalType": "address"
        },
        {
          "name": "spender",
          "type": "address",
          "internalType": "address"
        },
        {
          "name": "value",
          "type": "uint256",
          "internalType": "uint256"
        }
      ],
      "outputs": [
        {
          "name": "",
          "type": "bool",
          "internalType": "bool"
        }
      ],
      "stateMutability": "nonpayable"
    },
    {
      "type": "function",
      "name": "autoSell",
      "inputs": [
        {
          "name": "orders",
          "type": "tuple[]",
          "internalType": "struct ExactInputSingleParams[]",
          "components": [
            {
              "name": "tokenIn",
              "type": "address",
              "internalType": "address"
            },
            {
              "name": "tokenOut",
              "type": "address",
              "internalType": "address"
            },
            {
              "name": "fee",
              "type": "uint24",
              "internalType": "uint24"
            },
            {
              "name": "recipient",
              "type": "address",
              "internalType": "address"
            },
            {
              "name": "deadline",
              "type": "uint256",
              "internalType": "uint256"
            },
            {
              "name": "amountIn",
              "type": "uint256",
              "internalType": "uint256"
            },
            {
              "name": "amountOutMinimum",
              "type": "uint256",
              "internalType": "uint256"
            },
            {
              "name": "sqrtPriceLimitX96",
              "type": "uint160",
              "internalType": "uint160"
            }
          ]
        }
      ],
      "outputs": [],
      "stateMutability": "nonpayable"
    },
    {
      "type": "function",
      "name": "bundleTrade",
      "inputs": [
        {
          "name": "orders",
          "type": "tuple[]",
          "internalType": "struct ExactInputSingleParams[]",
          "components": [
            {
              "name": "tokenIn",
              "type": "address",
              "internalType": "address"
            },
            {
              "name": "tokenOut",
              "type": "address",
              "internalType": "address"
            },
            {
              "name": "fee",
              "type": "uint24",
              "internalType": "uint24"
            },
            {
              "name": "recipient",
              "type": "address",
              "internalType": "address"
            },
            {
              "name": "deadline",
              "type": "uint256",
              "internalType": "uint256"
            },
            {
              "name": "amountIn",
              "type": "uint256",
              "internalType": "uint256"
            },
            {
              "name": "amountOutMinimum",
              "type": "uint256",
              "internalType": "uint256"
            },
            {
              "name": "sqrtPriceLimitX96",
              "type": "uint160",
              "internalType": "uint160"
            }
          ]
        }
      ],
      "outputs": [],
      "stateMutability": "nonpayable"
    },
    {
      "type": "function",
      "name": "inverseTrade",
      "inputs": [
        {
          "name": "order",
          "type": "tuple",
          "internalType": "struct ExactInputSingleParams",
          "components": [
            {
              "name": "tokenIn",
              "type": "address",
              "internalType": "address"
            },
            {
              "name": "tokenOut",
              "type": "address",
              "internalType": "address"
            },
            {
              "name": "fee",
              "type": "uint24",
              "internalType": "uint24"
            },
            {
              "name": "recipient",
              "type": "address",
              "internalType": "address"
            },
            {
              "name": "deadline",
              "type": "uint256",
              "internalType": "uint256"
            },
            {
              "name": "amountIn",
              "type": "uint256",
              "internalType": "uint256"
            },
            {
              "name": "amountOutMinimum",
              "type": "uint256",
              "internalType": "uint256"
            },
            {
              "name": "sqrtPriceLimitX96",
              "type": "uint160",
              "internalType": "uint160"
            }
          ]
        }
      ],
      "outputs": [],
      "stateMutability": "nonpayable"
    },
    {
      "type": "function",
      "name": "owner",
      "inputs": [],
      "outputs": [
        {
          "name": "",
          "type": "address",
          "internalType": "address"
        }
      ],
      "stateMutability": "view"
    },
    {
      "type": "function",
      "name": "random",
      "inputs": [
        {
          "name": "minNumber",
          "type": "uint256",
          "internalType": "uint256"
        },
        {
          "name": "maxNumber",
          "type": "uint256",
          "internalType": "uint256"
        }
      ],
      "outputs": [
        {
          "name": "amount",
          "type": "uint256",
          "internalType": "uint256"
        }
      ],
      "stateMutability": "view"
    },
    {
      "type": "function",
      "name": "removeAdmin",
      "inputs": [
        {
          "name": "admin",
          "type": "address",
          "internalType": "address"
        }
      ],
      "outputs": [],
      "stateMutability": "nonpayable"
    },
    {
      "type": "function",
      "name": "renounceOwnership",
      "inputs": [],
      "outputs": [],
      "stateMutability": "nonpayable"
    },
    {
      "type": "function",
      "name": "transferOwnership",
      "inputs": [
        {
          "name": "newOwner",
          "type": "address",
          "internalType": "address"
        }
      ],
      "outputs": [],
      "stateMutability": "nonpayable"
    },
    {
      "type": "function",
      "name": "withdrawERC20",
      "inputs": [
        {
          "name": "token",
          "type": "address",
          "internalType": "address"
        },
        {
          "name": "recipient",
          "type": "address",
          "internalType": "address"
        }
      ],
      "outputs": [],
      "stateMutability": "nonpayable"
    },
    {
      "type": "function",
      "name": "withdrawETH",
      "inputs": [
        {
          "name": "recipient",
          "type": "address",
          "internalType": "address"
        }
      ],
      "outputs": [],
      "stateMutability": "nonpayable"
    },
    {
      "type": "event",
      "name": "OwnershipTransferred",
      "inputs": [
        {
          "name": "previousOwner",
          "type": "address",
          "indexed": true,
          "internalType": "address"
        },
        {
          "name": "newOwner",
          "type": "address",
          "indexed": true,
          "internalType": "address"
        }
      ],
      "anonymous": false
    },
    {
      "type": "event",
      "name": "Received",
      "inputs": [
        {
          "name": "sender",
          "type": "address",
          "indexed": false,
          "internalType": "address"
        },
        {
          "name": "amount",
          "type": "uint256",
          "indexed": false,
          "internalType": "uint256"
        }
      ],
      "anonymous": false
    },
    {
      "type": "error",
      "name": "OwnableInvalidOwner",
      "inputs": [
        {
          "name": "owner",
          "type": "address",
          "internalType": "address"
        }
      ]
    },
    {
      "type": "error",
      "name": "OwnableUnauthorizedAccount",
      "inputs": [
        {
          "name": "account",
          "type": "address",
          "internalType": "address"
        }
      ]
    }
  ],
  "bytecode": {
    "object": "0x60806040523480156200001157600080fd5b506040516200138d3803806200138d83398101604081905262000034916200018d565b816001600160a01b0381166200006457604051631e4fbdf760e01b81526000600482015260240160405180910390fd5b6200006f816200010a565b50600180546001600160a01b0319166001600160a01b03851617905560005b81518160ff1610156200010057600160026000848460ff1681518110620000b957620000b962000287565b6020908102919091018101516001600160a01b03168252810191909152604001600020805460ff191691151591909117905580620000f7816200029d565b9150506200008e565b50505050620002cb565b600080546001600160a01b038381166001600160a01b0319831681178455604051919092169283917f8be0079c531659141344cd1fd0a4f28419497f9722a3daafe3b4186f6b6457e09190a35050565b80516001600160a01b03811681146200017257600080fd5b919050565b634e487b7160e01b600052604160045260246000fd5b600080600060608486031215620001a357600080fd5b620001ae846200015a565b92506020620001bf8186016200015a565b60408601519093506001600160401b0380821115620001dd57600080fd5b818701915087601f830112620001f257600080fd5b81518181111562000207576200020762000177565b8060051b604051601f19603f830116810181811085821117156200022f576200022f62000177565b60405291825284820192508381018501918a8311156200024e57600080fd5b938501935b82851015620002775762000267856200015a565b8452938501939285019262000253565b8096505050505050509250925092565b634e487b7160e01b600052603260045260246000fd5b600060ff821660ff8103620002c257634e487b7160e01b600052601160045260246000fd5b60010192915050565b6110b280620002db6000396000f3fe6080604052600436106100ab5760003560e01c80639456fbcc116100645780639456fbcc146101e45780639ec4739214610204578063a9dd122514610224578063e1cb981d14610252578063e1f21c6714610272578063f2fde38b146102a2576100eb565b80631785f53c1461012057806317a8d93f14610142578063690d8320146101625780637048027514610182578063715018a6146101a25780638da5cb5b146101b7576100eb565b366100eb57604080513381523460208201527f88a5966d370b9919b20f3e2c13ff65706f196a4e32cc2c12bf57088f8852587491015b60405180910390a1005b604080513381523460208201527f88a5966d370b9919b20f3e2c13ff65706f196a4e32cc2c12bf57088f8852587491016100e1565b34801561012c57600080fd5b5061014061013b366004610c6f565b6102c2565b005b34801561014e57600080fd5b5061014061015d366004610da5565b61037f565b34801561016e57600080fd5b5061014061017d366004610c6f565b61066d565b34801561018e57600080fd5b5061014061019d366004610c6f565b6106ae565b3480156101ae57600080fd5b506101406106e3565b3480156101c357600080fd5b506000546040516001600160a01b0390911681526020015b60405180910390f35b3480156101f057600080fd5b506101406101ff366004610e59565b6106f7565b34801561021057600080fd5b5061014061021f366004610da5565b6107e8565b34801561023057600080fd5b5061024461023f366004610e92565b6108ff565b6040519081526020016101db565b34801561025e57600080fd5b5061014061026d366004610eb4565b610970565b34801561027e57600080fd5b5061029261028d366004610ed1565b610b0d565b60405190151581526020016101db565b3480156102ae57600080fd5b506101406102bd366004610c6f565b610b92565b6001600160a01b038181166000908152600260205260408120805460ff1916905554165b6001600160a01b0316336001600160a01b0316148061031957503360009081526002602052604090205460ff1615156001145b61037c5760405162461bcd60e51b815260206004820152602960248201527f4f6e6c7920746865206f776e6572206f722061646d696e2063616e20657865636044820152683aba32903a3434b99760b91b60648201526084015b60405180910390fd5b50565b600081511180156103925750805160ff10155b6103cf5760405162461bcd60e51b815260206004820152600e60248201526d092dcecc2d8d2c840d8cadccee8d60931b6044820152606401610373565b6000805b82518160ff1610156104905760015483516001600160a01b039091169063414bf38990859060ff851690811061040b5761040b610f12565b60200260200101516040518263ffffffff1660e01b815260040161042f9190610f28565b6020604051808303816000875af115801561044e573d6000803e3d6000fd5b505050506040513d601f19601f820116820180604052508101906104729190610f91565b61047c9083610fc0565b91508061048881610fd3565b9150506103d3565b506000826000815181106104a6576104a6610f12565b6020026020010151905060006104be600160036108ff565b905060008167ffffffffffffffff8111156104db576104db610c93565b60405190808252806020026020018201604052801561054a57816020015b604080516101008101825260008082526020808301829052928201819052606082018190526080820181905260a0820181905260c0820181905260e082015282526000199092019101816104f95790505b5090508360005b82518160ff16101561064c5760006001845161056d9190610ff2565b8260ff161461058f5761058a610584600a8561101b565b846108ff565b610591565b825b905061059d8184610ff2565b925060405180610100016040528087602001516001600160a01b0316815260200187600001516001600160a01b03168152602001876040015162ffffff16815260200187606001516001600160a01b03168152602001876080015181526020018281526020016000815260200160006001600160a01b0316815250848360ff168151811061062d5761062d610f12565b602002602001018190525050808061064490610fd3565b915050610551565b50610656826107e8565b50505050506102e66000546001600160a01b031690565b610675610bcd565b6040516001600160a01b038216904780156108fc02916000818181858888f193505050501580156106aa573d6000803e3d6000fd5b5050565b6001600160a01b0381166000908152600260205260409020805460ff191660011790556102e66000546001600160a01b031690565b6106eb610bcd565b6106f56000610bfa565b565b6106ff610bcd565b6040516370a0823160e01b815230600482015282906001600160a01b0382169063a9059cbb90849083906370a0823190602401602060405180830381865afa15801561074f573d6000803e3d6000fd5b505050506040513d601f19601f820116820180604052508101906107739190610f91565b6040516001600160e01b031960e085901b1681526001600160a01b03909216600483015260248201526044016020604051808303816000875af11580156107be573d6000803e3d6000fd5b505050506040513d601f19601f820116820180604052508101906107e2919061102f565b50505050565b600081511180156107fb5750805160ff10155b6108385760405162461bcd60e51b815260206004820152600e60248201526d092dcecc2d8d2c840d8cadccee8d60931b6044820152606401610373565b60005b81518160ff1610156108ed5760015482516001600160a01b039091169063414bf38990849060ff851690811061087357610873610f12565b60200260200101516040518263ffffffff1660e01b81526004016108979190610f28565b6020604051808303816000875af11580156108b6573d6000803e3d6000fd5b505050506040513d601f19601f820116820180604052508101906108da9190610f91565b50806108e581610fd3565b91505061083b565b506000546001600160a01b03166102e6565b600061090b8383610ff2565b604080514260208201526bffffffffffffffffffffffff193360601b16918101919091524360548201526074016040516020818303038152906040528051906020012060001c61095b9190611051565b90506109678382610fc0565b90505b92915050565b60015460405163414bf38960e01b81526000916001600160a01b03169063414bf389906109a1908590600401610f28565b6020604051808303816000875af11580156109c0573d6000803e3d6000fd5b505050506040513d601f19601f820116820180604052508101906109e49190610f91565b9050600160009054906101000a90046001600160a01b03166001600160a01b031663414bf38960405180610100016040528085602001516001600160a01b0316815260200185600001516001600160a01b03168152602001856040015162ffffff16815260200185606001516001600160a01b03168152602001856080015181526020018481526020016103e88660a00151610a80919061101b565b610a8c906103b6611065565b815260006020909101526040516001600160e01b031960e084901b168152610ab79190600401610f28565b6020604051808303816000875af1158015610ad6573d6000803e3d6000fd5b505050506040513d601f19601f82011682018060405250810190610afa9190610f91565b50506000546001600160a01b03166102e6565b6000610b17610bcd565b60405163095ea7b360e01b81526001600160a01b0384811660048301526024820184905285169063095ea7b3906044016020604051808303816000875af1158015610b66573d6000803e3d6000fd5b505050506040513d601f19601f82011682018060405250810190610b8a919061102f565b949350505050565b610b9a610bcd565b6001600160a01b038116610bc457604051631e4fbdf760e01b815260006004820152602401610373565b61037c81610bfa565b6000546001600160a01b031633146106f55760405163118cdaa760e01b8152336004820152602401610373565b600080546001600160a01b038381166001600160a01b0319831681178455604051919092169283917f8be0079c531659141344cd1fd0a4f28419497f9722a3daafe3b4186f6b6457e09190a35050565b6001600160a01b038116811461037c57600080fd5b8035610c6a81610c4a565b919050565b600060208284031215610c8157600080fd5b8135610c8c81610c4a565b9392505050565b634e487b7160e01b600052604160045260246000fd5b604051601f8201601f1916810167ffffffffffffffff81118282101715610cd257610cd2610c93565b604052919050565b803562ffffff81168114610c6a57600080fd5b6000610100808385031215610d0157600080fd5b6040519081019067ffffffffffffffff82118183101715610d2457610d24610c93565b8160405280925083359150610d3882610c4a565b818152610d4760208501610c5f565b6020820152610d5860408501610cda565b6040820152610d6960608501610c5f565b60608201526080840135608082015260a084013560a082015260c084013560c0820152610d9860e08501610c5f565b60e0820152505092915050565b60006020808385031215610db857600080fd5b823567ffffffffffffffff80821115610dd057600080fd5b818501915085601f830112610de457600080fd5b813581811115610df657610df6610c93565b610e04848260051b01610ca9565b818152848101925060089190911b830184019087821115610e2457600080fd5b928401925b81841015610e4e57610e3b8885610ced565b8352848301925061010084019350610e29565b979650505050505050565b60008060408385031215610e6c57600080fd5b8235610e7781610c4a565b91506020830135610e8781610c4a565b809150509250929050565b60008060408385031215610ea557600080fd5b50508035926020909101359150565b60006101008284031215610ec757600080fd5b6109678383610ced565b600080600060608486031215610ee657600080fd5b8335610ef181610c4a565b92506020840135610f0181610c4a565b929592945050506040919091013590565b634e487b7160e01b600052603260045260246000fd5b81516001600160a01b03908116825260208084015182169083015260408084015162ffffff16908301526060808401518216908301526080808401519083015260a0838101519083015260c0808401519083015260e09283015116918101919091526101000190565b600060208284031215610fa357600080fd5b5051919050565b634e487b7160e01b600052601160045260246000fd5b8082018082111561096a5761096a610faa565b600060ff821660ff8103610fe957610fe9610faa565b60010192915050565b8181038181111561096a5761096a610faa565b634e487b7160e01b600052601260045260246000fd5b60008261102a5761102a611005565b500490565b60006020828403121561104157600080fd5b81518015158114610c8c57600080fd5b60008261106057611060611005565b500690565b808202811582820484141761096a5761096a610faa56fea2646970667358221220e870c567577b8554aa0be0e322361b48095f149c3f72cbff22d1ca072023b68e64736f6c63430008140033",
    "linkReferences": {}
  },
  "methodIdentifiers": {
    "addAdmin(address)": "70480275",
    "approve(address,address,uint256)": "e1f21c67",
    "autoSell((address,address,uint24,address,uint256,uint256,uint256,uint160)[])": "17a8d93f",
    "bundleTrade((address,address,uint24,address,uint256,uint256,uint256,uint160)[])": "9ec47392",
    "inverseTrade((address,address,uint24,address,uint256,uint256,uint256,uint160))": "e1cb981d",
    "owner()": "8da5cb5b",
    "random(uint256,uint256)": "a9dd1225",
    "removeAdmin(address)": "1785f53c",
    "renounceOwnership()": "715018a6",
    "transferOwnership(address)": "f2fde38b",
    "withdrawERC20(address,address)": "9456fbcc",
    "withdrawETH(address)": "690d8320"
  },
  "storageLayout": {
    "storage": [
      {
        "astId": 35117,
        "contract": "src/GhostTrader.sol:GhostTrader",
        "label": "_owner",
        "offset": 0,
        "slot": "0",
        "type": "t_address"
      },
      {
        "astId": 35787,
        "contract": "src/GhostTrader.sol:GhostTrader",
        "label": "swapRouter",
        "offset": 0,
        "slot": "1",
        "type": "t_contract(ISwapRouter)36278"
      },
      {
        "astId": 35791,
        "contract": "src/GhostTrader.sol:GhostTrader",
        "label": "admins",
        "offset": 0,
        "slot": "2",
        "type": "t_mapping(t_address,t_bool)"
      }
    ],
    "types": {
      "t_address": {
        "encoding": "inplace",
        "label": "address",
        "numberOfBytes": "20"
      },
      "t_bool": {
        "encoding": "inplace",
        "label": "bool",
        "numberOfBytes": "1"
      },
      "t_contract(ISwapRouter)36278": {
        "encoding": "inplace",
        "label": "contract ISwapRouter",
        "numberOfBytes": "20"
      },
      "t_mapping(t_address,t_bool)": {
        "encoding": "mapping",
        "key": "t_address",
        "label": "mapping(address => bool)",
        "numberOfBytes": "32",
        "value": "t_bool"
      }
    }
  },
  "id": 17
}